:020000040000FA
:100000008C28640011200318012842200830A30026
:1000100043201120A20C0C28A30B082843202208FF
:10002000080036088400340884178004841300050F
:1000300033193406FF3E0800A60036088400093054
:10004000A70003102820A60CA70B22280314282899
:100050008413B31D372800083404331D3406800090
:10006000841700083404031C340680004328000869
:100070003404031C34063319340680008417340911
:10008000800543283317330D0639A0005120A10005
:10009000A00A5120331F6B283313A00002308220A6
:1000A0006B2800308A00200882070134753403343D
:1000B000153400343C340C34D934A301A200FF3091
:1000C000A207031CA307031C87280330A100DF300D
:1000D0006B205F28A101E83EA000A109FC30031CB1
:1000E0007428A00703187128A0076400A10F7128C5
:1000F00020187A28A01C7E2800007E280800031003
:10010000A10CA00CFF3E03187F282008872883132A
:10011000031383126400080007309F00061583163E
:10012000061183120330A300E8308A015E20861591
:100130008316861183120330A300E8308A015E2003
:1001400006168316061283120330A300E8308A01D4
:100150005E2086168316861283120330A300E830D1
:100160008A015E2006178316061383120330A3004C
:10017000E8308A015E2086178316861383120330C7
:10018000A300E8308A015E2006118316061183124F
:1001900086118316861183120612831606128312A5
:1001A0008612831686128312061383160613831291
:1001B0008613831686138312051283160512831283
:1001C00005118316051183120130A300F4308A0152
:1001D0005E200630B6000130B4000430B300413078
:1001E0008A011C2050308A011C2052308A011C20B8
:1001F0004F308A011C2042308A011C2041308A0184
:100200001C2052308A011C2045308A011C204D30B0
:100210008A011C204F308A011C2053308A011C2087
:1002200020308A011C200130A30090308A015E201A
:1002300005168316051264008A1183128519462952
:100240000630B6000130B4000430B30041308A01FA
:100250001C2020308A011C2050308A011C204F3085
:100260008A011C2043308A011C204F308A011C2047
:1002700020308A011C204E308A011C204F308A0118
:100280001C203F308A011C208A1146290130A3001E
:10029000F4308A015E200630B6000230B40004302B
:1002A000B3008A010120B8000516831605128312D7
:1002B0000130A300F4308A015E2064003808413C1C
:1002C0008A11031DB3298617831686138312033000
:1002D000A300E8308A015E200617831606138312F6
:1002E0000330A300E8308A015E208616831686124A
:1002F00083120330A300E8308A015E2006168316BD
:10030000061283120330A300E8308A015E208615AE
:100310008316861183120330A300E8308A015E2021
:1003200006158316061183120330A300E8308A01F4
:100330005E2006118316061183128611831686111C
:1003400083120612831606128312861283168612F1
:1003500083120613831606138312861383168613DD
:0C03600083128A018E2863008A01B329F1
:02400E006D3F04
:00000001FF
